:1000000033C000004CC000004AC0000048C00000DF
:1000100046C0000044C0000042C0000040C00000D4
:100020003EC000003CC000003AC000001DC50000FA
:1000300036C0000034C0000032C0000030C00000F4
:100040002EC000002CC000002AC0000028C0000004
:1000500026C0000024C0000022C0000020C0000014
:100060001EC000001CC0000011241FBECFEFD8E04E
:10007000DEBFCDBF11E0A0E0B1E0ECE8FBE002C0E4
:1000800005900D92A031B107D9F727E0A0E1B1E0CA
:1000900001C01D92A934B207E1F718D075C5B0CFE1
:1000A000CF93DF9300D0CDB7DEB7259A8FD19A8357
:1000B00089832D9A68EE73E0CE010196A8D22D981F
:1000C00068EE73E0CE010196A2D2F3CFA12CB12C41
:1000D000C12CD12CE12CF12C03E020E030E040E0F9
:1000E00051E062E071E080E590E04FD039D1FFCF80
:1000F000E0912F01F09130018081811103C08FEFD9
:100100009FEF0CC0E0912F01F09130010580F68146
:10011000E02D0680F781E02D82819381909301018B
:10012000809300010895CF93DF93EC01E091670184
:10013000F091680193838283809117019091180157
:100140006091670170916801C817D90748F48091E0
:100150002D0190912E016E5F7F4FDF91CF91B9C439
:1001600080912F01909130016E5F7F4FB2D48091CA
:10017000000190910101C817D90720F4D093010123
:10018000C0930001DF91CF9108955F926F927F92AB
:100190008F929F92AF92BF92CF92DF92EF92FF9297
:1001A0000F931F93CF93DF934C01162F572E5A01B5
:1001B0003901C114D10431F4CA01CDD26C010097C8
:1001C00009F4BDC086E290E0C6D2EC01009761F070
:1001D000D88ECF8A21E0A21AB108AC0CBD1CE12F49
:1001E000F52D80E090E007C0C601E5D2A8C00196D9
:1001F0008830910561F0BF0141919E01280F391FA0
:10020000D90159964C93DB012C912111F0CF18A202
:10021000102F043008F013E01E8B6E01B2E0CB0EFD
:10022000D11CC60131D4CE010C962ED4D987C887F3
:1002300084E090E0811B91099D878C87DB8BCA8BC2
:1002400019A21AA21BA21CA21DA2A301B401C501DE
:10025000B3D299838883E114F10419F0F701D183B3
:10026000C0830FB6F8940F92809119018F5F80932D
:1002700019018091670190916801892B69F5D093EC
:100280006801C0936701809119018130A1F583E471
:1002900091E0ECD38CE491E0E9D385E591E0E6D3FD
:1002A0008EE591E0E3D38AE391E0E0D381E391E04E
:1002B000DDD384E291E0DAD38BE191E0D7D38AE316
:1002C00091E09093300180932F0181E391E090932E
:1002D0002E0180932D010FC08091150181110BC05B
:1002E000E0916701F09168018689081720F0D093AA
:1002F0006801C0936701809111018F5F80931101A4
:100300008E8990911601981710F480931601F9E0E8
:100310008F9FC0011124B6018D5B9E4FB9D30F9002
:100320000FBE80911501882341F0E0916701F091A3
:1003300068018689801708F4E5D281E001C08FEF5B
:10034000DF91CF911F910F91FF90EF90DF90CF90B1
:10035000BF90AF909F908F907F906F905F90089527
:10036000AF92BF92CF92DF92EF92FF920F93A12CA8
:10037000B12CC12CD12CE12CF12C00E020E030E09C
:1003800045E550E06BE071E08DE393E0FEDE813007
:1003900079F4F894809315011092180110921701C6
:1003A0000F91FF90EF90DF90CF90BF90AF9070C211
:1003B0000F91FF90EF90DF90CF90BF90AF90089596
:1003C000809110018F5F8093100108950FB6F8940B
:1003D0000F9280911701909118010F900FBE089510
:1003E000CF92DF92EF92FF920F931F93CF93DF9301
:1003F0008091100181118AC080911701909118019C
:1004000001969093180180931701009117011091A4
:10041000180101151105B1F480912F01909130015F
:1004200020912D0130912E013093300120932F0126
:1004300090932E0180932D01809112018F5F809304
:10044000120156DE8091000190910101D12C081714
:10045000190708F44AC089E0C82EE0912F01F091F5
:1004600030018081811107C08FEF9FEF90930101D0
:10047000809300013AC0E0912F01F0913001058096
:10048000F681E02DC681D7812A813B8102171307AF
:1004900028F4309301012093000127C07E0182E0FF
:1004A000E80EF11CC7014DD32C893D89232B19F08F
:1004B000CE010C9646D32E8980911601821710F436
:1004C00020931601C29EC0011124B7018D5B9E4F7F
:1004D000DFD2E0916701F09168019E8986899817C3
:1004E00008F4BBCFDD24D394B8CFE0916701F0913D
:1004F0006801E68989E0E89FF0011124ED5BFE4F79
:100500008081823048F0DD24D39406C080911401AC
:100510008F5F80931401D12C80911301882311F0F7
:10052000DD24D3948D2DDF91CF911F910F91FF90FA
:10053000EF90DF90CF900895EF92FF920F931F936B
:10054000CF93DF930FB6F8940F92809110018150F2
:100550008093100180911001882311F080E04EC03B
:10056000809119018823D1F399E0F92EEE24E394C8
:1005700080912401882339F1E0912901F0912A0129
:10058000C681D781CE010C96DCD28E010E5F1F4F43
:10059000C801D7D28E8990911601981710F48093D4
:1005A0001601F89EC0011124B8018D5B9E4F70D2D8
:1005B000E0916701F09168019E8986899817C0F2E1
:1005C000E0921301D5CF80911401811108C0809170
:1005D0001301813009F0C2CF95D181E00FC0C1E095
:1005E00080911401882399F3FBDE8111C0931301DC
:1005F00080911401815080931401F2CF0F900FBEAF
:10060000DF91CF911F910F91FF90EF9008950F937D
:100610001F93CF93DF938C01EB01D2DE4091170142
:1006200050911801F80120813181C20FD31F421768
:10063000530728F4C217D30748F481E004C081E0CF
:10064000C217D30720F04C175D0708F080E0F801CF
:10065000D183C083882341F0809167019091680124
:1006600002966FD2CE015FDD67DF811101C04AD1F2
:10067000DF91CF911F910F91089580911A018823E6
:1006800021F19EDEC0911B0157DFCC23B1F30FB6E1
:10069000F8940F92E0912001F0912101C681D78159
:1006A000CE0102964ED2809119018150809319019A
:1006B00080911A01815080931A010F900FBE8F898B
:1006C000988D79D0CE0177D0D8CF809143018230F8
:1006D000A0F218D1D2CF80911001882321F081E0BF
:1006E0008093130108951092130199E0E09116018F
:1006F0009E9FF0011124ED5BFE4F8081811106C0A9
:1007000080911601815080931601F0CFE09116017F
:1007100089E0E89FF0011124ED5BFE4FA181B281D9
:1007200012960D90BC91A02DB283A183CF010396A8
:10073000A817B90731F412968D919C911397928363
:1007400081830180F281E02D8681978190936801F9
:10075000809367010895CF93DF93EC0131DE8091A0
:10076000690190916A01892B31F48EE691E09093B2
:100770006A018093690120916B0130916C01CE0177
:10078000820F931F8B3D45E0940770F428173907BB
:1007900058F4C0916901D0916A01C20FD31F9093A0
:1007A0006C0180936B0102C0C0E0D0E0C5DECE01D9
:1007B000DF91CF910895089531E1FC0130833197A5
:1007C00022E220833197A3E3A0833197608331979E
:1007D000708331971082319760E86083319710827F
:1007E000319762E06083319763E06083319764E022
:1007F0006083319765E06083319766E0608331976D
:1008000067E06083319768E06083319769E06083D7
:10081000319760E1608331973083319732E13083E3
:10082000319733E13083319734E13083319735E1CB
:100830003083319736E13083319737E13083319718
:1008400038E13083319739E13083319730E23083BA
:10085000319731E2308331972083319723E220832F
:100860003197408331975083319726E22083319727
:1008700027E22083319728E22083319729E22083E1
:10088000319720E32083319721E3208386970895D1
:10089000109289008CE7809388008BE08093810020
:1008A000EFE6F0E0808182608083A0916701B091E3
:1008B0006801CD91CDBFDD91DEBFFF91EF91DF915A
:1008C000CF91BF91AF919F918F917F916F915F91E8
:1008D0004F913F912F911F910F91FF90EF90DF90DB
:1008E000CF90BF90AF909F908F907F906F905F90D0
:1008F0004F903F902F901F900F900FBE0F90089534
:1009000081E008950F920FB6F8940F921F92112470
:100910002F923F924F925F926F927F928F929F920F
:10092000AF92BF92CF92DF92EF92FF920F931F93FD
:100930002F933F934F935F936F937F938F939F93E7
:10094000AF93BF93CF93DF93EF93FF93A091670192
:10095000B09168010DB60D920EB60D92BCDEA0915D
:100960006701B0916801CD91CDBFDD91DEBFFF91F0
:10097000EF91DF91CF91BF91AF919F918F917F9137
:100980006F915F914F913F912F911F910F91FF9028
:10099000EF90DF90CF90BF90AF909F908F907F901F
:1009A0006F905F904F903F902F901F900F900FBED1
:1009B0000F9008950F920FB6F8940F921F92112482
:1009C0002F923F924F925F926F927F928F929F925F
:1009D000AF92BF92CF92DF92EF92FF920F931F934D
:1009E0002F933F934F935F936F937F938F939F9337
:1009F000AF93BF93CF93DF93EF93FF93A0916701E2
:100A0000B09168010DB60D920EB60D92E9DC811120
:100A100062DEA0916701B0916801CD91CDBFDD91FB
:100A2000DEBFFF91EF91DF91CF91BF91AF919F9189
:100A30008F917F916F915F914F913F912F911F9176
:100A40000F91FF90EF90DF90CF90BF90AF909F906D
:100A50008F907F906F905F904F903F902F901F905E
:100A60000F900FBE0F900895A5DF1895FC01039617
:100A7000928381832FEF3FEF348323839683858393
:100A80009087878310820895FC011186108608954F
:100A9000CF93DF939C01FB01DC011196CD91DC919A
:100AA0001297D383C2838C819D81958384838C81AB
:100AB0009D81DC0113967C936E9312977D836C83EA
:100AC00031872087F90180818F5F8083DF91CF910B
:100AD00008950F931F93CF93DF938C01FB01208127
:100AE00031812F3F8FEF380721F4E801AF81B885BE
:100AF0000EC0D801139612968D919C911397EC011C
:100B0000488159812417350710F0DC01F4CF129683
:100B10008D919C91139793838283EC01FD83EC83E9
:100B2000B583A4831396FC93EE93129711870087E5
:100B3000F80180818F5F8083DF91CF911F910F91AA
:100B40000895CF93DF93FC01A085B18582819381C5
:100B500024813581EC013D832C83C481D5819B8325
:100B60008A8311968D919C9112978E179F0721F47D
:100B70001296DC93CE931197118610868C9181503A
:0C0B80008C93DF91CF910895F894FFCF83
:100B8C00FFFF477265656E4C45440049444C450077
:00000001FF
